{
  "_format": "hh-sol-artifact-1",
  "contractName": "Healthcare",
  "sourceName": "Contracts/Healthcare.sol",
  "abi": [
    {
      "inputs": [],
      "stateMutability": "nonpayable",
      "type": "constructor"
    },
    {
      "anonymous": false,
      "inputs": [
        {
          "indexed": false,
          "internalType": "bytes32",
          "name": "healthcareHash",
          "type": "bytes32"
        }
      ],
      "name": "LogDeleteHealthcare",
      "type": "event"
    },
    {
      "anonymous": false,
      "inputs": [
        {
          "indexed": false,
          "internalType": "bytes32",
          "name": "healthcareHash",
          "type": "bytes32"
        }
      ],
      "name": "LogRegisterHealthcare",
      "type": "event"
    },
    {
      "inputs": [
        {
          "internalType": "bytes32",
          "name": "healthcareHash",
          "type": "bytes32"
        }
      ],
      "name": "DeleteHealthcare",
      "outputs": [
        {
          "internalType": "bool",
          "name": "",
          "type": "bool"
        }
      ],
      "stateMutability": "nonpayable",
      "type": "function"
    },
    {
      "inputs": [
        {
          "internalType": "bytes32",
          "name": "healthcareHash",
          "type": "bytes32"
        }
      ],
      "name": "GetHealthcareInfo",
      "outputs": [
        {
          "components": [
            {
              "internalType": "uint256",
              "name": "registeredDate",
              "type": "uint256"
            },
            {
              "internalType": "uint256",
              "name": "deletedDate",
              "type": "uint256"
            },
            {
              "internalType": "string",
              "name": "phoneNumber",
              "type": "string"
            },
            {
              "internalType": "string",
              "name": "hospital",
              "type": "string"
            },
            {
              "internalType": "enum Healthcare.HealthcareStatus",
              "name": "status",
              "type": "uint8"
            },
            {
              "internalType": "enum Healthcare.HealthcareType",
              "name": "healthcareType",
              "type": "uint8"
            }
          ],
          "internalType": "struct Healthcare.HealthcareInfo",
          "name": "healthcare",
          "type": "tuple"
        }
      ],
      "stateMutability": "view",
      "type": "function"
    },
    {
      "inputs": [
        {
          "internalType": "bytes32",
          "name": "healthcareHash",
          "type": "bytes32"
        },
        {
          "internalType": "string",
          "name": "phoneNumber",
          "type": "string"
        },
        {
          "internalType": "enum Healthcare.HealthcareType",
          "name": "healthcareType",
          "type": "uint8"
        },
        {
          "internalType": "string",
          "name": "hospital",
          "type": "string"
        }
      ],
      "name": "RegisterHealthcare",
      "outputs": [
        {
          "internalType": "bool",
          "name": "",
          "type": "bool"
        }
      ],
      "stateMutability": "nonpayable",
      "type": "function"
    }
  ],
  "bytecode": "0x608060405234801561001057600080fd5b50611047806100206000396000f3fe608060405234801561001057600080fd5b50600436106100415760003560e01c80631037c5d3146100465780632a28f947146100765780633963829c146100a6575b600080fd5b610060600480360381019061005b9190610b29565b6100d6565b60405161006d9190610d47565b60405180910390f35b610090600480360381019061008b9190610b29565b6104b4565b60405161009d9190610dbd565b60405180910390f35b6100c060048036038101906100bb9190610b52565b610726565b6040516100cd9190610d47565b60405180910390f35b6000806000808481526020019081526020016000206040518060c0016040529081600082015481526020016001820154815260200160028201805461011a90610ea9565b80601f016020809104026020016040519081016040528092919081815260200182805461014690610ea9565b80156101935780601f1061016857610100808354040283529160200191610193565b820191906000526020600020905b81548152906001019060200180831161017657829003601f168201915b505050505081526020016003820180546101ac90610ea9565b80601f01602080910402602001604051908101604052809291908181526020018280546101d890610ea9565b80156102255780601f106101fa57610100808354040283529160200191610225565b820191906000526020600020905b81548152906001019060200180831161020857829003601f168201915b505050505081526020016004820160009054906101000a900460ff166002811115610279577f4e487b7100000000000000000000000000000000000000000000000000000000600052602160045260246000fd5b60028111156102b1577f4e487b7100000000000000000000000000000000000000000000000000000000600052602160045260246000fd5b81526020016004820160019054906101000a900460ff166003811115610300577f4e487b7100000000000000000000000000000000000000000000000000000000600052602160045260246000fd5b6003811115610338577f4e487b7100000000000000000000000000000000000000000000000000000000600052602160045260246000fd5b81525050905060016002811115610378577f4e487b7100000000000000000000000000000000000000000000000000000000600052602160045260246000fd5b816080015160028111156103b5577f4e487b7100000000000000000000000000000000000000000000000000000000600052602160045260246000fd5b146103f5576040517f08c379a00000000000000000000000000000000000000000000000000000000081526004016103ec90610d9d565b60405180910390fd5b4260008085815260200190815260200160002060010181905550600260008085815260200190815260200160002060040160006101000a81548160ff0219169083600281111561046e577f4e487b7100000000000000000000000000000000000000000000000000000000600052602160045260246000fd5b02179055507fa7d61570c43248655c482345a9f34f47532860316025aa18c02af17e72f1f916836040516104a29190610d62565b60405180910390a16001915050919050565b6104bc61096c565b6000808381526020019081526020016000206040518060c001604052908160008201548152602001600182015481526020016002820180546104fd90610ea9565b80601f016020809104026020016040519081016040528092919081815260200182805461052990610ea9565b80156105765780601f1061054b57610100808354040283529160200191610576565b820191906000526020600020905b81548152906001019060200180831161055957829003601f168201915b5050505050815260200160038201805461058f90610ea9565b80601f01602080910402602001604051908101604052809291908181526020018280546105bb90610ea9565b80156106085780601f106105dd57610100808354040283529160200191610608565b820191906000526020600020905b8154815290600101906020018083116105eb57829003601f168201915b505050505081526020016004820160009054906101000a900460ff16600281111561065c577f4e487b7100000000000000000000000000000000000000000000000000000000600052602160045260246000fd5b6002811115610694577f4e487b7100000000000000000000000000000000000000000000000000000000600052602160045260246000fd5b81526020016004820160019054906101000a900460ff1660038111156106e3577f4e487b7100000000000000000000000000000000000000000000000000000000600052602160045260246000fd5b600381111561071b577f4e487b7100000000000000000000000000000000000000000000000000000000600052602160045260246000fd5b815250509050919050565b6000806002811115610761577f4e487b7100000000000000000000000000000000000000000000000000000000600052602160045260246000fd5b60008089815260200190815260200160002060040160009054906101000a900460ff1660028111156107bc577f4e487b7100000000000000000000000000000000000000000000000000000000600052602160045260246000fd5b146107fc576040517f08c379a00000000000000000000000000000000000000000000000000000000081526004016107f390610d7d565b60405180910390fd5b426000808981526020019081526020016000206000018190555085856000808a8152602001908152602001600020600201919061083a929190610a12565b508360008089815260200190815260200160002060040160016101000a81548160ff02191690836003811115610899577f4e487b7100000000000000000000000000000000000000000000000000000000600052602160045260246000fd5b021790555082826000808a815260200190815260200160002060030191906108c2929190610a12565b50600160008089815260200190815260200160002060040160006101000a81548160ff02191690836002811115610922577f4e487b7100000000000000000000000000000000000000000000000000000000600052602160045260246000fd5b02179055507fbdeeb8d058511f5c89747b09e399181a7012fbfdcc1ae42a684fc7709bc87df3876040516109569190610d62565b60405180910390a1600190509695505050505050565b6040518060c0016040528060008152602001600081526020016060815260200160608152602001600060028111156109cd577f4e487b7100000000000000000000000000000000000000000000000000000000600052602160045260246000fd5b815260200160006003811115610a0c577f4e487b7100000000000000000000000000000000000000000000000000000000600052602160045260246000fd5b81525090565b828054610a1e90610ea9565b90600052602060002090601f016020900481019282610a405760008555610a87565b82601f10610a5957803560ff1916838001178555610a87565b82800160010185558215610a87579182015b82811115610a86578235825591602001919060010190610a6b565b5b509050610a949190610a98565b5090565b5b80821115610ab1576000816000905550600101610a99565b5090565b600081359050610ac481610fea565b92915050565b600081359050610ad981611001565b92915050565b60008083601f840112610af157600080fd5b8235905067ffffffffffffffff811115610b0a57600080fd5b602083019150836001820283011115610b2257600080fd5b9250929050565b600060208284031215610b3b57600080fd5b6000610b4984828501610ab5565b91505092915050565b60008060008060008060808789031215610b6b57600080fd5b6000610b7989828a01610ab5565b965050602087013567ffffffffffffffff811115610b9657600080fd5b610ba289828a01610adf565b95509550506040610bb589828a01610aca565b935050606087013567ffffffffffffffff811115610bd257600080fd5b610bde89828a01610adf565b92509250509295509295509295565b610bf681610e0c565b82525050565b610c0581610e18565b82525050565b610c1481610e52565b82525050565b610c2381610e64565b82525050565b6000610c3482610ddf565b610c3e8185610dea565b9350610c4e818560208601610e76565b610c5781610f39565b840191505092915050565b6000610c6f601a83610dfb565b9150610c7a82610f4a565b602082019050919050565b6000610c92603283610dfb565b9150610c9d82610f73565b604082019050919050565b600060c083016000830151610cc06000860182610d38565b506020830151610cd36020860182610d38565b5060408301518482036040860152610ceb8282610c29565b91505060608301518482036060860152610d058282610c29565b9150506080830151610d1a6080860182610c0b565b5060a0830151610d2d60a0860182610c1a565b508091505092915050565b610d4181610e48565b82525050565b6000602082019050610d5c6000830184610bed565b92915050565b6000602082019050610d776000830184610bfc565b92915050565b60006020820190508181036000830152610d9681610c62565b9050919050565b60006020820190508181036000830152610db681610c85565b9050919050565b60006020820190508181036000830152610dd78184610ca8565b905092915050565b600081519050919050565b600082825260208201905092915050565b600082825260208201905092915050565b60008115159050919050565b6000819050919050565b6000819050610e3082610fc2565b919050565b6000819050610e4382610fd6565b919050565b6000819050919050565b6000610e5d82610e22565b9050919050565b6000610e6f82610e35565b9050919050565b60005b83811015610e94578082015181840152602081019050610e79565b83811115610ea3576000848401525b50505050565b60006002820490506001821680610ec157607f821691505b60208210811415610ed557610ed4610f0a565b5b50919050565b7f4e487b7100000000000000000000000000000000000000000000000000000000600052602160045260246000fd5b7f4e487b7100000000000000000000000000000000000000000000000000000000600052602260045260246000fd5b6000601f19601f8301169050919050565b7f43616e6e6f742072656769737465722073616d6520686173682e000000000000600082015250565b7f4865616c746863617265206461746120646f6573206e6f74206578697374206f60008201527f7220616c72656164792064656c657465642e0000000000000000000000000000602082015250565b60038110610fd357610fd2610edb565b5b50565b60048110610fe757610fe6610edb565b5b50565b610ff381610e18565b8114610ffe57600080fd5b50565b6004811061100e57600080fd5b5056fea26469706673582212208cc54c6a7e734ef9fd391e7c1b78df398253ee6a3433d17ec37d9503fe2e6ef064736f6c63430008040033",
  "linkReferences": {},
  "deployedLinkReferences": {}
}