{
  "_format": "hh-sol-artifact-1",
  "contractName": "Prescription",
  "sourceName": "contracts/Prescription.sol",
  "abi": [
    {
      "inputs": [],
      "stateMutability": "nonpayable",
      "type": "constructor"
    },
    {
      "anonymous": false,
      "inputs": [
        {
          "indexed": false,
          "internalType": "bytes32",
          "name": "prescriptionHash",
          "type": "bytes32"
        }
      ],
      "name": "LogRegisterPrescription",
      "type": "event"
    },
    {
      "anonymous": false,
      "inputs": [
        {
          "indexed": false,
          "internalType": "bytes32",
          "name": "prescriptionHash",
          "type": "bytes32"
        }
      ],
      "name": "LogUsePrescription",
      "type": "event"
    },
    {
      "inputs": [
        {
          "internalType": "bytes32",
          "name": "prescriptionHash",
          "type": "bytes32"
        }
      ],
      "name": "GetPrescriptionInfo",
      "outputs": [
        {
          "components": [
            {
              "internalType": "uint256",
              "name": "prescribeDate",
              "type": "uint256"
            },
            {
              "internalType": "uint256",
              "name": "prepareDate",
              "type": "uint256"
            },
            {
              "internalType": "uint256",
              "name": "endDate",
              "type": "uint256"
            },
            {
              "internalType": "enum Prescription.PrescriptionStatus",
              "name": "status",
              "type": "uint8"
            },
            {
              "internalType": "string",
              "name": "hospital",
              "type": "string"
            },
            {
              "internalType": "string",
              "name": "pharmacy",
              "type": "string"
            }
          ],
          "internalType": "struct Prescription.PrescriptionInfo",
          "name": "prescription",
          "type": "tuple"
        }
      ],
      "stateMutability": "view",
      "type": "function"
    },
    {
      "inputs": [
        {
          "internalType": "bytes32",
          "name": "prescriptionHash",
          "type": "bytes32"
        },
        {
          "internalType": "uint256",
          "name": "prescribeDate",
          "type": "uint256"
        },
        {
          "internalType": "uint256",
          "name": "endDate",
          "type": "uint256"
        },
        {
          "internalType": "string",
          "name": "hospital",
          "type": "string"
        }
      ],
      "name": "RegisterPrescription",
      "outputs": [
        {
          "internalType": "bool",
          "name": "",
          "type": "bool"
        }
      ],
      "stateMutability": "nonpayable",
      "type": "function"
    },
    {
      "inputs": [
        {
          "internalType": "bytes32",
          "name": "prescriptionHash",
          "type": "bytes32"
        },
        {
          "internalType": "uint256",
          "name": "prepareDate",
          "type": "uint256"
        },
        {
          "internalType": "string",
          "name": "pharmacy",
          "type": "string"
        }
      ],
      "name": "UsePrescription",
      "outputs": [
        {
          "internalType": "bool",
          "name": "",
          "type": "bool"
        }
      ],
      "stateMutability": "nonpayable",
      "type": "function"
    }
  ],
  "bytecode": "0x608060405234801561001057600080fd5b506110dd806100206000396000f3fe608060405234801561001057600080fd5b50600436106100415760003560e01c806325113d7d1461004657806376b976b614610076578063fd6dbf0f146100a6575b600080fd5b610060600480360381019061005b9190610b16565b6100d6565b60405161006d9190610e27565b60405180910390f35b610090600480360381019061008b9190610a81565b6102f0565b60405161009d9190610efd565b60405180910390f35b6100c060048036038101906100bb9190610aaa565b6104e5565b6040516100cd9190610e27565b60405180910390f35b6000806002811115610111577f4e487b7100000000000000000000000000000000000000000000000000000000600052602160045260246000fd5b60008088815260200190815260200160002060030160009054906101000a900460ff16600281111561016c577f4e487b7100000000000000000000000000000000000000000000000000000000600052602160045260246000fd5b146101ac576040517f08c379a00000000000000000000000000000000000000000000000000000000081526004016101a390610ebd565b60405180910390fd5b834211156101ef576040517f08c379a00000000000000000000000000000000000000000000000000000000081526004016101e690610edd565b60405180910390fd5b84600080888152602001908152602001600020600001819055508360008088815260200190815260200160002060020181905550600160008088815260200190815260200160002060030160006101000a81548160ff02191690836002811115610282577f4e487b7100000000000000000000000000000000000000000000000000000000600052602160045260246000fd5b0217905550828260008089815260200190815260200160002060040191906102ab9291906108fc565b507f194cffe08b875b81ae58cd6e8b21763c13697264620b36a3760b333fe06bd17a866040516102db9190610e42565b60405180910390a16001905095945050505050565b6102f8610982565b6000808381526020019081526020016000206040518060c00160405290816000820154815260200160018201548152602001600282015481526020016003820160009054906101000a900460ff16600281111561037e577f4e487b7100000000000000000000000000000000000000000000000000000000600052602160045260246000fd5b60028111156103b6577f4e487b7100000000000000000000000000000000000000000000000000000000600052602160045260246000fd5b81526020016004820180546103ca90610fc4565b80601f01602080910402602001604051908101604052809291908181526020018280546103f690610fc4565b80156104435780601f1061041857610100808354040283529160200191610443565b820191906000526020600020905b81548152906001019060200180831161042657829003601f168201915b5050505050815260200160058201805461045c90610fc4565b80601f016020809104026020016040519081016040528092919081815260200182805461048890610fc4565b80156104d55780601f106104aa576101008083540402835291602001916104d5565b820191906000526020600020905b8154815290600101906020018083116104b857829003601f168201915b5050505050815250509050919050565b6000806000808781526020019081526020016000206040518060c00160405290816000820154815260200160018201548152602001600282015481526020016003820160009054906101000a900460ff16600281111561056e577f4e487b7100000000000000000000000000000000000000000000000000000000600052602160045260246000fd5b60028111156105a6577f4e487b7100000000000000000000000000000000000000000000000000000000600052602160045260246000fd5b81526020016004820180546105ba90610fc4565b80601f01602080910402602001604051908101604052809291908181526020018280546105e690610fc4565b80156106335780601f1061060857610100808354040283529160200191610633565b820191906000526020600020905b81548152906001019060200180831161061657829003601f168201915b5050505050815260200160058201805461064c90610fc4565b80601f016020809104026020016040519081016040528092919081815260200182805461067890610fc4565b80156106c55780601f1061069a576101008083540402835291602001916106c5565b820191906000526020600020905b8154815290600101906020018083116106a857829003601f168201915b50505050508152505090506001600281111561070a577f4e487b7100000000000000000000000000000000000000000000000000000000600052602160045260246000fd5b81606001516002811115610747577f4e487b7100000000000000000000000000000000000000000000000000000000600052602160045260246000fd5b14610787576040517f08c379a000000000000000000000000000000000000000000000000000000000815260040161077e90610e7d565b60405180910390fd5b80600001514210156107ce576040517f08c379a00000000000000000000000000000000000000000000000000000000081526004016107c590610e5d565b60405180910390fd5b8060400151421115610815576040517f08c379a000000000000000000000000000000000000000000000000000000000815260040161080c90610e9d565b60405180910390fd5b8460008088815260200190815260200160002060010181905550600260008088815260200190815260200160002060030160006101000a81548160ff0219169083600281111561088e577f4e487b7100000000000000000000000000000000000000000000000000000000600052602160045260246000fd5b0217905550838360008089815260200190815260200160002060050191906108b79291906108fc565b507f42467287bcf0b98cb32e588f3f3f0426e36364ac1d8d4d8bd7fb1b837c1c620a866040516108e79190610e42565b60405180910390a16001915050949350505050565b82805461090890610fc4565b90600052602060002090601f01602090048101928261092a5760008555610971565b82601f1061094357803560ff1916838001178555610971565b82800160010185558215610971579182015b82811115610970578235825591602001919060010190610955565b5b50905061097e91906109f0565b5090565b6040518060c00160405280600081526020016000815260200160008152602001600060028111156109dc577f4e487b7100000000000000000000000000000000000000000000000000000000600052602160045260246000fd5b815260200160608152602001606081525090565b5b80821115610a095760008160009055506001016109f1565b5090565b600081359050610a1c81611079565b92915050565b60008083601f840112610a3457600080fd5b8235905067ffffffffffffffff811115610a4d57600080fd5b602083019150836001820283011115610a6557600080fd5b9250929050565b600081359050610a7b81611090565b92915050565b600060208284031215610a9357600080fd5b6000610aa184828501610a0d565b91505092915050565b60008060008060608587031215610ac057600080fd5b6000610ace87828801610a0d565b9450506020610adf87828801610a6c565b935050604085013567ffffffffffffffff811115610afc57600080fd5b610b0887828801610a22565b925092505092959194509250565b600080600080600060808688031215610b2e57600080fd5b6000610b3c88828901610a0d565b9550506020610b4d88828901610a6c565b9450506040610b5e88828901610a6c565b935050606086013567ffffffffffffffff811115610b7b57600080fd5b610b8788828901610a22565b92509250509295509295909350565b610b9f81610f4c565b82525050565b610bae81610f58565b82525050565b610bbd81610f7f565b82525050565b6000610bce82610f1f565b610bd88185610f2a565b9350610be8818560208601610f91565b610bf181611054565b840191505092915050565b6000610c09602083610f3b565b91507f507265736372697074696f6e20646f6573206e6f74207072657363726962652e6000830152602082019050919050565b6000610c49603183610f3b565b91507f507265736372697074696f6e20646f6573206e6f74207265676973746572656460008301527f206f7220616c726561647920757365642e0000000000000000000000000000006020830152604082019050919050565b6000610caf601583610f3b565b91507f507265736372697074696f6e20657870697265642e00000000000000000000006000830152602082019050919050565b6000610cef601a83610f3b565b91507f43616e6e6f742072656769737465722073616d6520686173682e0000000000006000830152602082019050919050565b6000610d2f602183610f3b565b91507f43616e6e6f7420726567697374657220656e6420707265736372697074696f6e60008301527f2e000000000000000000000000000000000000000000000000000000000000006020830152604082019050919050565b600060c083016000830151610da06000860182610e18565b506020830151610db36020860182610e18565b506040830151610dc66040860182610e18565b506060830151610dd96060860182610bb4565b5060808301518482036080860152610df18282610bc3565b91505060a083015184820360a0860152610e0b8282610bc3565b9150508091505092915050565b610e2181610f75565b82525050565b6000602082019050610e3c6000830184610b96565b92915050565b6000602082019050610e576000830184610ba5565b92915050565b60006020820190508181036000830152610e7681610bfc565b9050919050565b60006020820190508181036000830152610e9681610c3c565b9050919050565b60006020820190508181036000830152610eb681610ca2565b9050919050565b60006020820190508181036000830152610ed681610ce2565b9050919050565b60006020820190508181036000830152610ef681610d22565b9050919050565b60006020820190508181036000830152610f178184610d88565b905092915050565b600081519050919050565b600082825260208201905092915050565b600082825260208201905092915050565b60008115159050919050565b6000819050919050565b6000819050610f7082611065565b919050565b6000819050919050565b6000610f8a82610f62565b9050919050565b60005b83811015610faf578082015181840152602081019050610f94565b83811115610fbe576000848401525b50505050565b60006002820490506001821680610fdc57607f821691505b60208210811415610ff057610fef611025565b5b50919050565b7f4e487b7100000000000000000000000000000000000000000000000000000000600052602160045260246000fd5b7f4e487b7100000000000000000000000000000000000000000000000000000000600052602260045260246000fd5b6000601f19601f8301169050919050565b6003811061107657611075610ff6565b5b50565b61108281610f58565b811461108d57600080fd5b50565b61109981610f75565b81146110a457600080fd5b5056fea26469706673582212206e25030d1d8b8c2ecfab3118a71534416795945c363e95fbbdbe11315dd337d064736f6c63430008000033",
  "linkReferences": {},
  "deployedLinkReferences": {}
}